:10000000C00A002095FC010099FC010099FC010048
:10001000AB1C020099FC010099FC010099FC010055
:1000200099FC010099FC010099FC010099FC010078
:1000300099FC010099FC0100F5ED010099FC01001B
:1000400099FC010099FC010099FC010099FC010058
:1000500099FC010099FC01001109020099FC0100C2
:1000600099FC010099FC010099FC010099FC010038
:100070000D81000099FC010099FC010099FC010030
:1000800099FC010099FC010099FC010099FC010018
:1000900099FC01003D6C000099FC010099FC0100F5
:1000A00099FC0100511E0000311E000099FC010066
:1000B00099FC010059CD010099FC010031D60100E5
:1000C0001BC6020017C60200A1CD010031C6020006
:1000D0001FC6020001D6010023C6020019E4010078
:1000E00055B4010011B6010071D6010099FC010060
:1000F00099FC010099FC010099FC010099FC0100A8
:1001000099FC010099FC010099FC010099FC010097
:1001100099FC010099FC010099FC010099FC010087
:1001200099FC010099FC010099FC010099FC010077
:1001300099FC010099FC0100C59800008B28020081
:1001400082B0BFF34F8FBFF36F8F30BF074BD3F831
:10015000F030DB0704D500230193019B052B01DD63
:1001600002B07047019B0133F6E700BF00ED00E0ED
:10017000F0B5114A114C124E00F00105E3695F071A
:1001800013D40DB9334213D103EA00078F4207D1CC
:100190000B4A1A40002A14BF6FF001000020F0BD86
:1001A000013AEBD16FF00200F9E74FF0FF30F6E7CC
:1001B0006FF00100F3E700BF809698000000035045
:1001C000020001000B4B70B5D96911F480310DD1DB
:1001D00001244FF48072084E084DF46020462C64D0
:1001E0001A61FFF7C5FF3464EC6070BD6FF0010069
:1001F000FBE700BF00000350001003500020035035
:100200004FF4003238B50F4B0F4C9A6641F67133FC
:100210000122E569E3630D4B0021DA60022360618E
:100220002120236105F48035FFF7A2FF10B92120BA
:10023000FFF79EFF0122064BDA600DB10023E36356
:1002400038BD00BF00900050000003500010035064
:100250000020035070B5134C6061E3695B071ED446
:100260000E4656F8043B8D18A361AE420BD1042311
:10027000002121202361FFF77BFF58B9BDE87040C2
:100280002120FFF775BF08210846FFF771FF10B165
:100290000423236170BD56F8043BA361E5E74FF0EA
:1002A000FF30F7E7000003502DE9F84316464FF4FE
:1002B0000032184B89469A6603F51C33DA69074603
:1002C00002F4803841F67132DA63012203F580537B
:1002D000114DDA6066B930460122104BDA60B8F190
:1002E000000F03D00022A3F50053DA63BDE8F883C2
:1002F00007F500542C40E41BB44228BF344649465D
:1003000022463846FFF7A6FF0028E5D12744A1443E
:10031000361BDFE70090005000E0FFFF0020035095
:100320002DE9F04F93B0CDE90A32DDE91C630E935D
:1003300053EC102BCDE90801104619468DED060B44
:100340001E9D0AF00FF880B1DDE906014FF0FF3283
:10035000C74B0AF02FF840B9DDE906014FF0FF3234
:100360006FF480130AF008F870B1DDE908019DED23
:10037000060B0E9B1E95CDE91C63DDE90A3213B016
:10038000BDE8F04F00F08CB90022DDE90601002342
:1003900009F0F2FF002800F03781DDE906A303F140
:1003A000004BCBF30A5015F48063A0F2FF3008BF76
:1003B00006260F9309F004FD9DA3D3E9002309F05D
:1003C00069FD9DA3D3E9002309F0AEFBCBF3130431
:1003D000894644F07F5180460022A64B504641F4A6
:1003E000401109F09FFB96A3D3E9002309F052FDC9
:1003F00002460B464046494609F096FB09F0E4FFE9
:10040000044609F0DDFC90A3D3E900238046894629
:1004100009F040FD0022984B09F086FB09F0D4FF5B
:100420008BA3D3E9002307464946404609F032FD35
:1004300080463846894609F0C3FC87A3D3E90023E8
:1004400009F028FD02460B464046494609F06AFB82
:1004500002460B46CDE90C2309F01CFDDDE90C2317
:10046000804689461046194609F05EFB0022CDE918
:100470001001824B4046494609F036FE0022804B6F
:1004800009F052FB02460B464046494609F02CFE55
:1004900000227C4B09F048FB02460B464046494689
:1004A00009F022FEDDE90C238046894600204FF04A
:1004B000804109F037FB02460B464046494609F0A9
:1004C00033FB02460B46DDE9100109F00DFE07F291
:1004D000FF3700226C4B09F027FB00223B0509F097
:1004E000D9FC52465B468046894609F063FF0028E6
:1004F00040F08D80CDE90C8904F16303C62B8CBFDD
:100500000527042729051FD555A3D3E90023504605
:10051000594609F045FF002800F0838052A3D3E933
:1005200000235046594609F027FF002879D0A642FB
:10053000D8BF00244FF00007C4BF341B04F1FF34C0
:1005400026463C4645F480650E9B9F422CBF4FF0EB
:100550000008A3EB070815F0020903D0002F18BF0D
:100560004FF000083CB1DDE90C235046594609F034
:10057000BBFD82468B46DDE906010022002309F01F
:10058000FBFE10B10BF100439B46DDE9080125F4A9
:100590000063CDE90183DDE90A324BEC10AB009634
:1005A00000F07EF802465FB3DDE9091315F0200F75
:1005B000089E00F101050CBF65204520B047DDE92C
:1005C00008010523002205930A23002CCDE90232FD
:1005D00007F1FF374FEAD473B8BF64422A4601934C
:1005E00004970A9B009421F0A2FC0246B9F1000F87
:1005F00006D00B9BC41A0B9B1A190E9BA34245D81D
:10060000104613B0BDE8F08FDDE906ABC9E6002265
:10061000404649461A4B09F067FD013CCDE90C0103
:100620006AE7002E90D00F9B002B8DD0013E8BE708
:10063000FB799F501344D33FB3C8608B288AC63FD1
:1006400061436F63A787D23F71A379094F930A4033
:100650001655B5BBB16B0240EF39FAFE422EE63FAC
:100660002D431CEBE2361A3F0000000080842E412F
:10067000FFFFEF7F0000F83F0000E03F00002C404C
:1006800000002440000018400000F03F2020DDE979
:100690000913089DA8470134ADE700BF0000000022
:1006A0002DE9F04F5BEC10AB97B0CDE90501DDE92A
:1006B0002048CDE90723504652465B465946229FC3
:1006C00009F050FE70B90323CDE902870193A44BD2
:1006D0000093DDE90501DDE9072321F05AFB17B09E
:1006E000BDE8F08F4FF0FF326FF48013504659464B
:1006F00009F042FE28B10423CDE902870193994B0A
:10070000E6E74FF0FF3250465946974B09F052FE4C
:1007100050B178074CBF04220322CDE902874CBFB9
:10072000924B934B0192D3E7504689A3D3E9002320
:10073000594609F03FFE38B987A3D3E90023504654
:10074000594609F019FE68B1DDE90723DDE9050125
:100750004BEC10ABCDE92187209417B0BDE8F04FEA
:10076000FFF7DEBD002200235046594609F004FE83
:10077000B8B15B4652460020002109F0D3F90123AD
:1007800082468B46099317F4806F08BF06243021F8
:1007900023460EAAA4F12009092B04D89946E41A8D
:1007A00007E00990EFE7013B4B4502F8011BF3D14D
:1007B00020245946504609F007FE6E4B054603EBD0
:1007C000C90393ED007B8DED0A7B09F0F9FA02462F
:1007D0000B465046594609F0A5F9DDE90A2309F010
:1007E00059FB02460B46CDE90C2309F015FE0646DF
:1007F00009F0D6FA02460B46DDE90C0109F092F940
:1008000002460B46CDE90C2300225B4B09F0D2FDDA
:10081000B8B10136304609F0C3FA02460B46DDE9AD
:100820000A0109F0B3FD08B100260135B9F1000F46
:1008300014D00A210EAB1A19202C40D13022A14429
:1008400050E00022DDE90C014B4B09F095FD00283A
:10085000ECD10EB1F107E9D50136E7E7284609F0FA
:10086000AFFA02460B465046594609F05BF90022A2
:10087000414B09F081FD10B9013525F001050A2130
:100880000EAB1A19202C0AD095FBF1F001FB105584
:10089000303502F8015B013405460028F2D107F03B
:1008A0000302012A38D1B8F1000F35D0099A12B9E4
:1008B00017F00C0F01D008F1FF38302223E0B6FB0F
:1008C000F1F001FB1063092E03F1300309F1FF3948
:1008D00004F1010402F8013BB0D90646ACE70EA9C9
:1008E0000A551C46202CCAD04C4504F10103F6D110
:1008F00004F158020DEB02042E2204F8202C1C46B1
:10090000BDE71A550134A04506D9202CF9D1CDE90F
:10091000028701940EABDBE6202CF8D0099B3BB19B
:100920002D2204F158036B4403F8202C0134EEE728
:100930007A0704D504F158032B226B44F4E73B07F4
:10094000E5D504F1580320226B44EDE7AFF30080B6
:100950000000000065CDCD410000000065CDCDC197
:100960005FEA020063EA0200FFFFEF7F56EA02003F
:100970005BEA0200F8F002000000E03F0348044B8D
:10098000834202D0034B03B118477047183100204F
:100990001831002000000000064B0749C91A8910D1
:1009A00048BF0131491003D0044B0BB1014818472F
:1009B000704700BF183100201831002000000000EF
:1009C00010B5064C237843B9FFF7D8FF044B13B199
:1009D0000448AFF300800123237010BDF62A0020E5
:1009E00000000000F038030008B5054B1BB10549B5
:1009F0000548AFF30080BDE80840FFF7CDBF00BF5A
:100A000000000000B80D0020F0380300A3F5803A84
:100A1000704700BF174B002B08BF134B9D46FFF7D5
:100A2000F5FF00218B460F461348144A121A21F095
:100A3000A5FF0E4B002B00D098470D4B002B00D08C
:100A400098470020002104000D000D48002802D026
:100A50000C48AFF300800AF02DF92000290021F0A6
:100A600016FF09F0B9FE00BF0000080000000000FA
:100A700000000000C00A0020C00A0020802C0020D6
:100A8000000000000000000037B504460CF04AFAF0
:100A900000283BD11E4B20766361A36843F480138A
:100AA000A36021F068F9A368A0801B030CD4B0F503
:100AB000FA7F09D92DF051FA0121054608462CF09C
:100AC00025FC28462DF044FA20460CF053FA054642
:100AD000C8B910480EF090FF23F03AFB24F04DFF08
:100AE00023F0B4F82A460121042023F006FB01A8D4
:100AF0008DF804500CF0F4FB042003210EF09CFC54
:100B000020461EF06DF9284603B030BD0025FAE7F7
:100B100005040300F030002008B50449044816F02D
:100B200041FCBDE8084016F06DBC00BF74E6020051
:100B30002CE702004FF08052014B5A60704700BF13
:100B400000ED00E0F8B50E460546D0B1C9B10E4B38
:100B50000E4F1968386802F037F9044678B9062351
:100B600032460B49386802F0F7F9044638B90123D8
:100B70002A460849386802F0EFF900B12C70204687
:100B8000F8BD2124FBE700BF742E0020942E002026
:100B90002C0004003C00040030B50368544A23F4E0
:100BA0007F4323F007039342044685B065D002F1EA
:100BB0000172934267D04F4A934262D101220225CB
:100BC00000211E200DF10D038DF80D50ADF80E2003
:100BD00011F08AFD044618B3474D4849286820F0B3
:100BE00028FC4749286820F024FC1EF0C2FF1EF0B4
:100BF000C1FF444B444A009344499E23286820F097
:100C000018FC43492346434A286820F012FC20463A
:100C100000F056FD4049286820F00BFC00BEFDE7BF
:100C20002A4601460DF10E03232011F05DFD054615
:100C300038B3314C3149206820F0FBFB3049206843
:100C400020F0F7FB1EF095FF1EF094FF2D4B2E4A6F
:100C500000932E49A423206820F0EBFB2C492B465F
:100C60002C4A206820F0E5FB284600F029FD2A499F
:100C7000206820F0DEFB00BEFDE78179808808F067
:100C80000BFC05B030BDB0F805301B2BF9D1C37992
:100C9000012B05D101890079C9B208F03DFCF0E7CC
:100CA000022B03D100791EF0C6F8EAE7124D134972
:100CB000286820F0BEFB1249286820F0BAFB1EF01D
:100CC00058FF1EF057FF154B0F4A00930F4985231D
:100CD000286820F0AEFB124A1249286820F0A9FBD0
:100CE000E2791149286820F0A4FB00BEFDE700BFAF
:100CF000A0000601A0000100840E0020E1EA02002D
:100D0000B8E702007CEE0200BDE7020060E80200E6
:100D10006FE802006CE8020084E8020094EE020032
:100D200095E802009BE80200B3E8020008B502F073
:100D3000ABFC28B9012002F0FBFC30B102F0D4FC7E
:100D400000231020044A137008BD044B044A1A60A3
:100D5000044B18600123F5E7F72A0020602E0020DD
:100D6000E0B1FFFFD00D0020124B70B51B78064696
:100D70000D46114C93B102F0F1FC4FF47A734343EA
:100D800023602B600D4A0E48116801F57A73834287
:100D900088BF002331600020136070BD44F62062DC
:100DA00023680B6003F57A739342C8BF054B236039
:100DB000E8E700BFF72A0020602E0020D00D0020B9
:100DC000A0860100E0B1FFFF08B503482DF0E8F967
:100DD000BDE8084021F006BD34F0020001482DF0C6
:100DE000DFB900BF34F0020010B50A46044619B15D
:100DF000024B00211B68984710BD00BFA8EE0200FF
:100E00000E4B0340B3F1607F06D1B1F5885F0CBF94
:100E100000206FF086007047B3F1707F0BD101F4B2
:100E2000E043B3F5005F06D111F4E06F14BF00207A
:100E30006FF0860070476FF0860070470000C07F3B
:100E40008A42F8B506460D4600F0CD806A4B22F482
:100E5000FF7121F00101994210D0684922F0FF038F
:100E60008B420BD022F47F7020F00300A1F570615B
:100E7000884203D001F5A0618B4227D15E4B25F457
:100E8000FF7121F00101994210D05C4925F0FF0368
:100E90008B420BD025F47F7020F00300A1F5706128
:100EA000884203D001F5A0618B420FD115F0FF00FD
:100EB0000BD0534B40F00070984240F0968082EA8D
:100EC0000500FF288CBF00200120F8BD05F0FE437F
:100ED000B3F1A06F11D102F0FE43B3F1A06F72D154
:100EE00082EA050333F47E136DD128046BD5C5F374
:100EF0000540C2F305429042E4E7B3F1407F62D17E
:100F000002F0FE43B3F1407F5DD182EA050030F488
:100F10007E1458D131462846FFF772FF002864D16D
:100F2000384912F47C1701EA020116D0B1F1607F52
:100F3000C2F3054336D1D1B241F0007101F17E41D7
:100F40000339102901D83048445C15F47C1F2FD197
:100F50009C4214BF00200120B7E7B1F1607F0AD1A5
:100F6000D3B243F0007303F17E43033B102B40D810
:100F70002649CB5CDFE7B1F1707F17D106F4E0437F
:100F8000B3F5005F33D10123C6F302218B4006F491
:100F9000E041B1F5005FD8D10120C6F3022600FA86
:100FA00006F4D2E7B1F1707FCFD1F0E73B46CCE752
:100FB0001FB9C5F30541A14215D0290403D5C5F3D6
:100FC000054098427EE725F47F03B3F1106F0CD102
:100FD00002F0FE43B3F1106F07D10D48104040F00E
:100FE0001060A842B5E701206FE700206DE73B469F
:100FF000CDE73B469FE700BF000200060013000656
:10100000FF0000020000C07FACEE0200ACEE020068
:101010000000FFF637B50D4D0C466B78022B12D150
:101020002B78072B0FD100230A460193014601AB11
:10103000281D1FF0FCFD20B9019BA34218BF6FF0D3
:10104000930003B030BD6FF08800FAE7D40D0020A4
:1010500038B500F0FE43B3F1407F04460D4602D0A0
:101060006FF0860038BDFFF7CBFE0028F8D114F4EE
:101070007C1F18D0C4F30543032B137022D9224AD6
:101080002240B2F1607F31D1E4B244F0007404F147
:101090007E44033C102CE3D81C4A125D9342DFD8F7
:1010A000142BDFD90EE0184B2340B3F1607F0FD132
:1010B000E3B243F0007303F17E43033B102B04D9EA
:1010C000002313706FF08500CCE71149CB5CD3E7A8
:1010D000B3F1707FF4D101F4E043B3F5005FEFD1D9
:1010E0000123C1F302218B40DBB2C5E7B2F1707F6F
:1010F000B6D105F4E042B2F5005FB1D10122C5F3EB
:101100000225AA40CAE700BF0000C07FACEE020083
:10111000ACEE02002DE9F843884617461C4600F065
:1011200003FA0546002844D1D8F80060B6F80090CC
:1011300009F4E043B3F5804FB36808BF27F0010717
:1011400037EA03032DD1A4B3244B24F4FF7222F019
:1011500001029A4210D0224A24F0FF0393420BD09E
:1011600024F47F7121F00301A2F57062914203D053
:1011700002F5A06293421FD114F0FF0304D0194A74
:1011800043F0007393421ED022464846F168FFF7B1
:1011900057FE074668B9224648463169FFF750FEB8
:1011A000D0B96FF0840500233046C8F800301EF037
:1011B0000BFC2846BDE8F88304F0FE43B3F1407F02
:1011C00004D12304E0D56FF08605ECE7B3F1A06FFE
:1011D000F7D0044B9C42D6E73D46EAE70002000602
:1011E00000130006FF0000022DE9F04F00249B468B
:1011F00001F0FE438FB0B3F1806F0F46DDE9186850
:101200009246DDF86890099472D10B464FF48072D3
:1012100009A9FFF77FFF054600286DD1099B1B88B0
:1012200003F4E042B2F5005F1CD113F4E06F19D073
:10123000364927F480728A420AD001F500718F4244
:1012400006D033498F4203D0A1F53F418A4209D1EC
:101250000124C3F302239C40102C0ED900266FF00A
:1012600083052EE042F20402934202D1294B9F42B1
:101270000DD0294B9F420CD10D24A0453ED32146D1
:101280000AA8FFF7C7FE054620B1002619E00C2486
:10129000F3E700240998D0E908123EB335194368F2
:1012A000A8EB040E5FEA132C23D10AABCDE903B5FA
:1012B0000093CDE905E93B46CDE9014A04F08EF9FA
:1012C000054609981EF080FB0746DDB9D8B924B160
:1012D000224630460AA921F078FBD9F800301C4498
:1012E0003846C9F800400FB0BDE8F08F3546D6E764
:1012F00026466FF08605E4E72646E2E700266FF013
:101300008905DEE72F460024EAE700BF0010C0048D
:1013100000FF4004000180040013C004002307B54F
:101320001A46009102491EF0BAF903B05DF804FBB9
:10133000C0EE020010B5114C2378580744BF03F0EB
:10134000FB032370990705D500F094F8237823F068
:101350000203237063781BB10023094A6360536062
:101360000023082106486370FFF73EFD2378DA0763
:1013700044BF23F00103237010BD00BFD40D002033
:10138000D80D002038B5184C62782378022A01D194
:10139000072B19D0DD0707D41FF047FC237805463B
:1013A00043F001032370E0B9980707D400F05AF81E
:1013B0002378054643F00203237090B962780AB996
:1013C000D90704D45A0708D50025284638BD07494F
:1013D00062604A6002226270F4E743F00403237003
:1013E000F2E7FFF7A7FFF0E7D40D0020D80D0020AB
:1013F00000F14043032B70B505460E460CD8282259
:10140000174C02FB0344237E022B02D16369834203
:101410001ED06FF08B0021E001211EF0AFFA70B1F9
:101420000F4B00221C46197E022902D15969A9429C
:101430000BD00132042A03F12803F4D1E9E76FF05D
:1014400087000BE06FF0960008E0282303FB0244BE
:1014500020461EF086FA0028F4D1346070BD00BF2B
:10146000E00D00200122024B002083F8A0207047ED
:10147000E00D00202DE9F0410A4C002526464FF0F2
:10148000010803272046C4F81C80277601351DF08B
:10149000D2FD042D04F12804F4D1002386F8A030F5
:1014A000BDE8F081E00D0020F8B51E4D064695F828
:1014B000A0300F4683B300242B462246197ED1B1BB
:1014C0003CB9022905D1D96919B91979002918BF80
:1014D0001C460132042A03F12803EFD114B96FF03E
:1014E0008C0006E020461EF03CFA20461DF0A3FDCD
:1014F00010B100240EE01C46237E83B9012323761D
:101500003EB1651BED1003F1CC335D4305F1804521
:10151000356000203C60F8BD6FF08800E9E76FF0AF
:101520009600E6E7E00D0020F7B50026294B0E6097
:1015300093F8A03007460D46002B48D0FFF758FF20
:1015400010F18C0F044627D129463046FFF7ACFF37
:10155000044608BB01232E68CDE9000069463046E9
:101560007761736001AA1EF0B2FA044628B9DDE97A
:10157000001230461DF0C4FC0446DDE900011EF0F7
:10158000A4FA28685CB11DF056FD14F18C0F08BF59
:101590006FF0870400232B60204603B0F0BD836802
:1015A000D90444BF43F4806383609A0444BF43F486
:1015B00000638360037E012B04BF022303761EF0C9
:1015C000D0F904460028E7D06FF09604E2E76FF008
:1015D0008804E1E7E00D002030B40D4D2C681C605C
:1015E0006C685C6000249C605468DC6014881C8219
:1015F00054885C8294685C61D4689C61126930BCD8
:10160000DA6119620A46014603F1240021F0DDB9CE
:10161000C4EE02002DE9F843232904460F46914603
:101620009846089E04D86FF098052846BDE8F883D0
:101630000822194921F079F905460028F3D1A36859
:10164000002BF0D1216A243F8F42C8F80010EAD362
:10165000B1F5005FE7D271B9C9F80000E3687360C3
:10166000238A3380638A73806369B360A369F360FC
:10167000E3693361D9E7012020F04EFAC9F8000090
:1016800030B1D8F8002004F1240121F09EF9E5E7FB
:101690006FF08C05C9E700BFC4EE020008B505F085
:1016A00073FB014B186008BD840E0020024B0349F8
:1016B00018681FF0BEBE00BF840E002000E90200C3
:1016C00070B50C4C0C49064620681FF0B2FE05F0C0
:1016D0005BFB0546206805F04BFB3046FFF7E6FF55
:1016E000284605F045FB20680449BDE870401FF01E
:1016F000A0BE00BF840E002002E9020004E902003F
:1017000038B505462CF032FC00230B4A14685CB156
:10171000AC4206D1A96A6BB199622CF022FC01207F
:1017200007E02346A46AF2E7002DF3D02CF019FC61
:10173000204638BD1160F0E7880E002010B5044641
:10174000B0B12CF09DF92046FFF7DAFF10B194F804
:101750002C300BB9002010BD064C2368002BF9D0AB
:101760002CF004FC2368013B23602CF0FAFBF1E72A
:101770002220F0E78C0E00202DE9F04385B00446CE
:10178000914698460E469DF8307009B9002F5CD1FD
:101790002046FFF7D3FF0546002858D184F82C00D7
:1017A000606306F071FC864233D92CF0F3F92946C8
:1017B000844640F2E7304FF47A720023E6FB0C01D6
:1017C00008F04AFE4FF0FF32002308F045FE2346A2
:1017D000E08611462046CDE900551E4A2CF093FEC6
:1017E000054690B9C4E9089884F82D7026632CF05A
:1017F000BDFB194A136833B31A469B6A002BFBD111
:1018000094620023A3622CF0ACFB284605B0BDE82F
:10181000F08347B1234631462046CDE900550D4AB5
:101820002CF03CFADCE7304603A92CF0B9F9054668
:101830000028EAD123462046CDE90077054A0399DE
:101840002CF039FECCE71460DBE72125DDE722250B
:10185000DBE700BF5D180000880E002091F82C30F7
:1018600013B50C4683B98B8ECA8E93420ED243B900
:10187000CDE9003320460B46124A4FF0FF312CF0E1
:10188000FCFDA38E0133A38602B010BD52B191F8C6
:101890002D3093B101230093D1E908232046096B31
:1018A000FFF76AFF012384F82C30074B1A680132D6
:1018B0001EBF1A6801321A60E6E708462CF0E0F80D
:1018C000F0E700BF5D1800008C0E00202DE9F0410C
:1018D000154E336833B34FF00008144F2CF046FB1D
:1018E00005463C6824B92846BDE8F0412CF039BBD8
:1018F00094F82C30A3B1336884F82C8013B133688A
:10190000013B336094F82D3013B92046FFF7F8FE01
:1019100028462CF026FBD4E9083120469847DDE71D
:10192000A46ADFE7BDE8F0818C0E0020880E00205D
:10193000034B1B68002B14BF04200120704700BF1D
:101940008C0E0020024B1868B0FA80F040097047F6
:101950008C0E002007B508201EF014FA0222064B58
:101960006846CDE900231EF006F9082003B05DF8B3
:1019700004EB1EF012BA00BF006A1810BFF34F8FBD
:101980000549064BCA6802F4E0621343CB60BFF31B
:101990004F8F00BFFDE700BF00ED00E00400FA0537
:1019A00070B5D0B1C9B10E4E431E013913F8014FC5
:1019B0002046325D02F00302012A11F8012F08BF10
:1019C00004F12000B55C05F00305012D08BF2032AD
:1019D000801A01D1002CE9D170BD0120FCE700BFC5
:1019E0005EF602000348044A0449121A92101EF0DF
:1019F00054B900BF4001000020030000802C0020EB
:101A000008B5154B83F30A8800F030F8FFF7EAFFBA
:101A1000124B13498B4212D30020124B12498B42B6
:101A200018D3FEF7F7FF186850F82240586840F8BE
:101A30002240013298688242F5D30C33EAE7002253
:101A4000F8E71C6844F8220001325C68A242F8D32F
:101A50000833E4E70022F8E700000020F83803002C
:101A60000439030004390300043903004FF4004132
:101A7000134B144A70B59A60D3F88820124D42F483
:101A80007002C3F88820114A05F5005491664FF0A2
:101A9000FF3222664FF6DF7262660222C3F8D02060
:101AA000BFF34F8FBFF36F8F4FF44036032005F025
:101AB00051F90320E66005F031F92E6170BD00BFD9
:101AC00000ED00E0000000000080004400900050A5
:101AD000014B1860704700BF682E0020054B18604E
:101AE000054B1B6F03F00703032B01D12BF0CEB87E
:101AF000704700BF702E00200080005030B5056890
:101B000087B0AB8804461848ADF80C302CF048FB81
:101B10000022012103A81EF04CF90DF10B0103A8CE
:101B20001EF07FF99DF80B3083F001032B70AB7929
:101B3000022B15D14FF0FF330022CDE9043304A965
:101B40000A4B009403A800F03BF9049B0094013376
:101B50000CBF04220122054B05A903A800F0CAF816
:101B6000002007B030BD00BF34F00200C9FC010006
:101B7000002307B5294801932CF012FB4FF4407362
:101B8000012204216846ADF800301EF012F901224E
:101B9000234B0520C3F8442401A92CF0FCFA0028AB
:101BA00039D1204BD3F8F02042F00102C3F8F020E5
:101BB000D3F8FC2042F08072C3F8FC201A4AA3F547
:101BC0005D431A60019B194A03F5D52303F2FC43D8
:101BD000B3FBF2F3164A013B13610223C2F8F03063
:101BE0004FF48073C2F804334FF06043114AC3F8D6
:101BF000B02F114AC3F8802ED3F8002E42F4807221
:101C0000C3F8002EFF2283F82020D3F8002E22F400
:101C10008072C3F8002E03B05DF804FB34F00200BC
:101C200000D0035000ED00E0FF030040F8590D0024
:101C3000000004E055CEACC5090001004FF0604340
:101C4000D3F8802E30B5D20715D501240B4D844032
:101C5000D5F8FC2042F08072C5F8FC20D3F8002EA5
:101C60002243C3F8002E53F82020002AF0D003F8B6
:101C70002010002030BD1120FCE700BF00ED00E087
:101C800070B5044601260C4D04B970BD94FAA4F059
:101C9000B0FA80F006FA00F224EA0204C200AA5860
:101CA0000F2805EBC001C8BF1038002AECD04968E6
:101CB000C0B29047E8E700BF900E002008B50C487E
:101CC0002CF06EFA192005F037F828B1192005F02C
:101CD00041F8192005F022F81A2005F02DF828B156
:101CE0001A2005F037F81A2005F018F8002008BD72
:101CF00034F002002DE9F0410D4690461F4604469F
:101D0000002836D0002934D02CF030F9237806464C
:101D1000FF2B05D042462046296803F027F82860AB
:101D20002868421C0BD12378FF2B1CD1124B607802
:101D3000D3F824141EF08BFE431C286013D00F49E7
:101D4000069B41F8307001EBC0014B602378FF2BFC
:101D500004D001230A4A8340C2F8243430462CF0D0
:101D600000F9002003E030462CF0FBF82D20BDE800
:101D7000F0812220FBE700BF00C00350900E00203E
:101D800000D003500F2838B5054613D82CF0EEF8D4
:101D900001230024084AAB40C2F82034C2F824349E
:101DA000064B43F8354003EBC5035C602CF0D9F8D3
:101DB000204638BD2120FCE700E00350900E0020B3
:101DC0002DE9F0410D4690461F46044650B349B3F5
:101DD0002CF0CCF823780646FF2B05D0424620464F
:101DE000296803F049F828602A68531C14D00E496A
:101DF000069B103241F8327001EBC2014B60237830
:101E0000FF2B04D001239340084AC2F82434304603
:101E10002CF0A7F8002003E030462CF0A2F82D208B
:101E2000BDE8F0812220FBE7900E002000D0035097
:101E300008B502F03BFF054B00F0553020F0502074
:101E4000C3F82004BDE80840FFF71ABF00E00350C4
:101E500008B502F02BFF054B00F0AA3020F0A020BF
:101E6000C3F82004BDE80840FFF70ABF00E00350B4
:101E70002DE9F04F144606460F4689B00393C36B15
:101E800001225B6904A960689847F36B01225B69D2
:101E900005A93846984704A81EF036FC054650B1FF
:101EA0000023A37563754FF0FF33A3600025284618
:101EB00009B0BDE8F08F05A81EF033FC0123A3751F
:101EC000237E04EBC303DF611D846368BB420ED134
:101ED000206005A81EF046FC4FF0FF332075A3607C
:101EE000237D043B022B26D80023A375DEE723685D
:101EF0001A1A53425341A37505A81EF033FC237DE3
:101F0000834218BFA57505A81EF00FFC804604A8E3
:101F10001EF00BFC804518BF002305A818BFA37551
:101F20001EF00AFC804604A81EF006FC80451CBF7B
:101F30000023A375D4E705A81EF0F7FB80B1F36B6F
:101F4000022238465B6906A9984706A81EF0FBFBEB
:101F50000346207D032839D8DFE800F0383804092B
:101F600005A8F3E7CC22237E04EBC3031A8401F017
:101F7000ADFA129B187005A894F818801EF0C9FBE2
:101F800004EBC80888F82200237E05A804EBC303ED
:101F9000B3F820A093F822801EF0C7FB814605A865
:101FA0001EF0CAFB8346B9F1000F14D0F36B022276
:101FB00038465B6906A9984706A81EF08AFB60753B
:101FC00068B90023A3754FF000093CE0227E04EBC2
:101FD000C2021384CBE705A81EF066FBEFE794F876
:101FE0001690B9F1000FEED0BAF1000F0DD1B8F193
:101FF000000F1DD00123E375637E002B3FD1B8F1A4
:10200000010F30D184F8198014E0736C07EB0B01D9
:102010005A4287EA010010421CBF0022A2755A1ED4
:102020000A409B1A9A45CCD8A37D002BDFD1CAE782
:10203000E37D43B94FF0000953465A4639463046CE
:102040001EF0A9F8A060A37D13B122695244226159
:102050001F49227E097891421AD901322276039AC9
:10206000CAB91D4623E796F834307BB9F36A0133C9
:10207000E2D1B8F1030FDFD10123A376DAE7B8F19B
:10208000010FE0D0B8F1030FD4D1F5E79946D3E7BB
:102090000023A3750BE7002B3FF409AFE57D002D6E
:1020A000DFD0B9F1000F11D1B8F1030F3FF4FFAE4B
:1020B000A1684B1C3FF4FBAE129B224600933046B6
:1020C0000123FFF7D5FE0546A075F0E64D46EEE686
:1020D000ECEE02002DE9F04F0E46984600238BB03F
:1020E00004464FF0FF31104617468DF8133001F0CB
:1020F000D7F9B6F5801F20D2314605AA04F10800B1
:102100001EF050FA451C014603D1237CBBB92D209B
:1021100010E0384601F0C4F90122394620460DF19D
:1021200013031EF08AF80028EFD09DF8133088F8CA
:10213000003000200BB0BDE8F08FB01CE5D1E56A9F
:10214000691C36D12046616A1DF06BFF0546B31C41
:1021500018BF0123DFF8CC900193636A626C02938D
:10216000236805A902FB053AE36B05225B6950462B
:10217000984705A81EF062FB1EF085FB50461EF036
:102180008DFB4FF0000B824601464B1C05D0636C63
:1021900081EA0A025B42134211D0294620461DF013
:1021A00040FF029BAB422CD0BBF1000F2CD1054667
:1021B000D3E72368ED1A636CB5FBF3F5C7E7484630
:1021C00001F06EF90DF1130349462046019A1EF005
:1021D00034F8034690B1B21C03D0D9F80020B242C3
:1021E0000CD19DF8132003930D4B88F8002049462D
:1021F0001A68384620F0E9FB039B9B46D9F8081083
:10220000C3E7BBF1000F82D0B6F5801F91D23146F3
:1022100098F800307A6804F1080001F06FF888E758
:10222000E8EE0200041600202DE9F34104461746AB
:1022300098460E46184D816AE36A8B4201D04B1CCA
:1022400002D102B0BDE8F081284601F029F901224F
:10225000294620460DF107031DF0EFFF38B1434634
:10226000294620469DF80720B8470028E9D0A968EC
:102270004A1C04D1696820461DF060FF0146012E0A
:10228000DAD16B6881EA0302636C5B421A4218BFC1
:102290004FF0FF31D0E700BFD81500202DE9F047FF
:1022A0004FF0FF334FF6FF720025044600F1080798
:1022B0008AB0C0E90923C3620562056338468846CF
:1022C0001EF041F920461DF02CFE60BB2046414621
:1022D0001DF0F7FE20461DF024FE60BB5E200AB014
:1022E000BDE8F0872368E26B606C566900FB05303F
:1022F000052205A9B04705A81EF0A0FA0128064648
:102300000CD1294620461DF0ADFE012E024600D11B
:102310000132294620461DF023FE03E01EF0B8FAE4
:102320000028EED10135E3699D42DBD320461DF044
:10233000F8FD0028CAD020461DF023FE4FF6FF729C
:10234000636A934200F0A680E26B666C206869467F
:1023500006FB030055690522A84768461EF045FAAA
:10236000626A2368606C4C4D00FB02301EF096FAE6
:102370004FF0FF33A062E3622A466FF0010120466E
:1023800005ABFFF7A7FE002846D1AD6829462046D9
:10239000E5621DF0A2FD206320B92046E16A1DF030
:1023A000CDFEE062294620461DF0C8FE0546A36A20
:1023B0009D4233D120461DF04EFD00268046B14699
:1023C000E36999453CD3B04559D92046616A1DF06F
:1023D00028FE0027054604F1400AB74212D3626C7A
:1023E0002368694602FB0539E36B05225B694846B1
:1023F000984768461EF0F9F9534602464946E06B95
:102400001EF04EFA294620461DF00BFE0137B84556
:102410000546E2D1642062E7A56AB7E7294620466F
:102420001DF05BFD236B29460344064623632046CB
:102430001DF084FE0546002EB9D1C4E90B06B6E7AF
:10244000636C2568052203FB0955E36B05A95B69ED
:102450002846984705A81EF0F1F91EF014FA58B165
:1024600028461EF01BFA014620461DF036FD636C1F
:10247000143B984208BF013609F10109A0E738462C
:102480001EF061F8002320461946044AFFF7CCFEEF
:10249000002024E7672022E73016002029020200EE
:1024A0002DE9F041036B9046826B90B09A4288BF51
:1024B0008363426C436A07680E4602FB0377C36B73
:1024C00001A905225B6904463846984701A81EF019
:1024D000B5F901280146307057D0656CE26B23686E
:1024E000606AD2F814C005FB0030052206A9E04757
:1024F00006A81EF0A3F901284FF0000523D0D4E967
:102500000A3201219342CDE90B458DF834800E95B6
:102510008DF83C102AD1194620461DF00FFE236B82
:10252000626C14339B1AE06223630C9B53B99DF8D1
:102530003C303BB1626A616C2368E06B01FB0231A5
:102540001EF034F90C9DE36B05225B6901A9384646
:10255000984701A81EF072F930702846236BA26BD1
:102560009A4288BFA36310B0BDE8F081237C33B9E1
:102570001C490BAA04F1080000F00EFFD5E7204625
:10258000194A0BABFFF750FECFE7237C23BB224653
:10259000164904F1080000F0FFFE616A20461DF0B4
:1025A00061FD616A421C20461DF0DAFC054620B937
:1025B000236B626C1344143B23632046A16A1DF015
:1025C000BDFD2368A062C01A636CB0FBF3F06062CB
:1025D00020461DF0F6FDB6E700232046044AFFF72B
:1025E00023FEDAE7152D0000912C0000C302020043
:1025F0005F02020073B50D46D11E4A421C461B7E87
:102600004A419A4226D129682368994222D36368B5
:1026100099421FD8114E0DF107033246FFF75AFDBC
:10262000C0B972686B689A4214D19DF80730DA1EFF
:1026300053425341227E93420CD16369013363615B
:10264000D4E90323934205D22968A26842F82310F3
:1026500001332361012002B070BD00BF301600209D
:102660002DE9F04F9A468BB09DF85030DFF850B10D
:102670000293DBF81030804653450D461646C0F0F5
:102680009880D146DBF804300193B9F1000F00F0D7
:102690008C80D8F83C3001225B6907A901989847E3
:1026A00007A81EF03EF8DBF80030984240F0848026
:1026B00007A81EF041F80428074614D107A81EF009
:1026C00042F8019B029A04463B44002A3ED18642CE
:1026D00012D91446361A404601991DF02FFDA9EB78
:1026E00004090190D1E7D8F83C3002225B690198D7
:1026F00008A9984708A8E2E7841B544528BF544618
:10270000032C03EB0607AAEB040A1DD9D8F83C30CA
:10271000294638465B69A208984724F0030304F071
:1027200003061F441D44002ED5D0D8F83C300122AA
:102730005B6908A9384698473246284608A93544B7
:1027400020F043F90026C6E72646ECE7074600F0EE
:102750000302039203442A1804920593049BDD1B91
:10276000059BD81B039B9F420FD1002FB3D0D8F8F5
:102770003C30012208A95B6998473A46284608A9D7
:1027800020F0D3F878B93D44A5E7D8F83C300122D1
:1027900008A95B6998470422284608A920F0C5F8D3
:1027A00008B9043FDAE74FF0360948460BB0BDE8F8
:1027B000F08F4FF06309F8E74FF06F09F5E700BFBE
:1027C0005C1600202DE9F0410F4616469846044657
:1027D00088B060B390F83450FDB101211DF096FB34
:1027E00000210E9BCDE90511CDE902379DF83C3063
:1027F000CDF804808DF81C30237C04968BB90D49EC
:1028000001AA04F1080000F0C7FDDDE90553E06B03
:10281000002E08BF1D461DF062FD284608B0BDE829
:10282000F0812046044A01ABFFF7FEFCEDE70546C8
:10283000F3E700BF8D020200F52500002DE9F04FFF
:1028400099B0CDE90B230E460A69416CD31D1439AA
:10285000B3FBF1F3013302EBC302036B0446934273
:10286000C0F00F820023DFF820940993E36A484602
:102870001946079300F014FED6E9033705930C9B25
:10288000022B1CD1CC2F40F074810B9B8BB13146B5
:1028900020461DF082FD656C14900B9B63B1E36BC9
:1028A00001225B69706816A9984716A81DF03DFFC4
:1028B0000CE0059B1B68149308230E930DE0782F02
:1028C000656CEAD80B9B002BE9D1F07D00280CBF8A
:1028D00004230823782F0E9328D901230025089379
:1028E00008230393336808990C98C9F80030C9F895
:1028F00010701DF03BFF00230F930D9306930A9376
:10290000039BDDF81CA09B0889F814001193616CEF
:1029100003984A1E0AEA02028B1AEFB10544AB4241
:102920001CD8236B5B1A1344236386E0079A6B1E43
:102930001340EB1A3A1D934207D257B1082BCCD85B
:102940000023042508930395CCE70025042308956C
:10295000C7E704250897F6E78342E2D3039AB8460F
:102960009B1A9F4228BF984652449F42049278D9AE
:102970000123D9F8102089F81730974276D1C9F889
:1029800004A0069399F81730002B71D099F81820FD
:102990000699D31C09EBC3030132C3F804A0A3F8C2
:1029A0000880997289F81820B8F1000F14D00C9B98
:1029B000022B60D10F9B7BB90D9B4344032B0BD99A
:1029C000E36B01229B69049814A9984705460028E7
:1029D00040F0D58001230F93069B16A80193089B16
:1029E000009399F814204346316800F00FFDE36B23
:1029F00050469B69119A16A99847051E099B18BF56
:102A00005346039A09935146434620461DF0C3FBA3
:102A1000236B039AC9F808009B1A08F1030222F0FD
:102A200003029B1A2363002D40F0A9800D9BDDF863
:102A300010A04344A7EB08070D93514620461DF014
:102A40007DFB00258246002F7FF461AF8E4A3168FE
:102A5000936804F10800E36252680C9B00F04EFC9E
:102A600089E0069B002B18BF03238AE7022388E72F
:102A7000C9F804A098E70B9B002B30D1059BB8F157
:102A8000030F03EB080B27D9DDE90401E36B4FEAE1
:102A900098029B6998470546002864D118F0030204
:102AA0005ED0059B28F003052B440593049B1D4431
:102AB0004FF0FF33059915A815931FF086FFE36BC0
:102AC000284601229B6915A998470546CDF814B000
:102AD000002D81D0049B94E74246049DE8E706F16F
:102AE0002003DDF810B01093F37D70689BB10023D4
:102AF000357E0A9AD9B2A94211D2109903F1010C7C
:102B000031F83310914225D90E9906EBC303D869E9
:102B10000A44104403E00E9B0A9A13441844E36BE2
:102B200001225B6915A99847159B012213930A9B03
:102B3000584604330A93E36B13A99B699847049B97
:102B400005464344A3EB0B03042B06D970B90BF1E4
:102B5000040BC9E76346521ACCE7CDF810B0B7E7CB
:102B6000CDF814B038E7CDF814B0B3E7CDF810B015
:102B7000B0E770252F46384619B0BDE8F08F3D2DDF
:102B8000F8D104F1080303932368079A606CD71AFD
:102B9000B7FBF0F700FB07301DF080FEE16A8246CC
:102BA00020461DF0CBFAA16AD4F830E08142626C75
:102BB00059D0D9F8083002F1FF3CAEEB020103EA2C
:102BC0000C030B44236309992368E062CB1AB3FB1F
:102BD000F2F847453BD1079BB3EB0A0711D0E36BF3
:102BE000BA0851469B6998478346E36A079A3B4473
:102BF000E362236B03989B1A534423631DF0A3FCE9
:102C00005F462368616CE06B01FB08311DF0BBFD82
:102C100020461DF086F920461DF0B3F9626A23684C
:102C2000606C00FB02301DF039FEA06220461DF0F2
:102C3000C8FA20636FB13269616CD31D1439B3FBDC
:102C4000F1F3013302EBC30290429DD292E70027D9
:102C5000D7E704F108001DF076FC3B4639462046D4
:102C60000A4AFFF7E1FA3269616CD31D1439B3FBEC
:102C7000F1F3013302EBC302236B9342BFF4F6ADD1
:102C800078E71C2777E700BF04160020290202001E
:102C9000032A2DE9F34106460D4617461C4606D188
:102CA000237A012B23D0012002B0BDE8F081DFF8A8
:102CB0006080096842460DF10703FFF70BFA606078
:102CC0000028EDD19DF80730032BE9D0D8F8042077
:102CD0006B689A42E4D1237A2969012BD4F80CC09D
:102CE00007D172690CEB0103934202D92074207C56
:102CF000DAE708316144E1603B460122294630466B
:102D0000FFF79CFD60600028CAD00020CCE700BF20
:102D1000301600202DE9F341032A1746089C06D1FE
:102D2000237A012B25D0012002B0BDE8F08126686E
:102D3000DFF89080304642460DF10703FFF7CAF9ED
:102D400060600028ECD12568D8F80400A96A6A6C94
:102D50004840534210EA030CE2D1237A012B0AD1F6
:102D6000E068D8F8103003447069834203D984F8CE
:102D700010C0207CD8E72868EB6A1B1A081AB3FB3E
:102D8000F2F3B0FBF2F083420BD1706CF36A421E97
:102D90001340326B121A1344284633631DF0CEF9E8
:102DA000E862D8F81020E36808321344E360012297
:102DB0003B4604492068FFF741FD60600028AFD022
:102DC0000020B1E7301600202DE9F0410025604BCE
:102DD0000E46D3F8008004461D6018B92125284608
:102DE000BDE8F08190F8347007B30A6803689A422E
:102DF00040F0A4804A6843689A4240F09F808A6805
:102E000083689A4240F09A80CA68C3689A4240F048
:102E100095800A6943699A4240F090808A69C36B41
:102E20009A4240F08B804B698361D8E7682239462B
:102E3000856B1FF0A3FDD6E90212336804F1080088
:102E400023607368A5636360336963617369A36119
:102E50001DF08BFBB36904F14000E3639B68984766
:102E600020B9676C17B16368B3FBF7F794F8433088
:102E7000E761002BB2D00023656C2366002D65D07E
:102E8000002F63D02368B3FBF5F205FB1233002B50
:102E900056D16668B6FBF5F305FB1363002B4FD1E3
:102EA00020461DF00AF8A369043303449E4249D327
:102EB00040F634726369CC3B934245D8B5F5805FE8
:102EC00044D3032120461DF021F8D4E90001E36B2F
:102ED0001B6898470546E36B0220DB689847D5B925
:102EE00041462046FFF7DAF96428054604D14146F9
:102EF0002046FFF7D3F905466DB9636C226A143B8F
:102F0000204602FB03F61CF0D8FFA36904330344F8
:102F10009E4238BF5A25002D0CBF0123002384F8A0
:102F2000343007D1D4E900010A4A13680133136031
:102F30001DF0B5FBE06B1DF0D2F950E75D254EE7C3
:102F400059254CE75A254AE75F2548E75B2546E7C0
:102F5000940F0020900F00202DE9FF410C461646EB
:102F60001F46054688B390F8343083B3B1F5801F0F
:102F70002FD2DFF8648001211CF0C8FF42462146B1
:102F800028460DF10F03FFF7A5F80246C8B99DF8D2
:102F90000F30012B10D1D8F81030BB4213D1009064
:102FA00031462846FFF75CFB0446E86B1DF097F9B5
:102FB000204604B0BDE8F081022B0CBF60242D2414
:102FC000F3E72D24F1E76324EFE72124F0E7112450
:102FD000EEE72924ECE700BF5C1600202DE9F04362
:102FE00085B00E4617461C460546DDF83080A0B376
:102FF00090F834309BB3B1F5801F32D2DFF868907F
:1030000001211CF083FF4A46314628460DF10F038B
:10301000FFF760F8E8B99DF80F30012B14D1D9F80B
:10302000102004EB08039A4215D322460090434631
:1030300039462846FFF714FB0446E86B1DF04FF9AC
:10304000204605B0BDE8F083022B0CBF60242D2480
:10305000F3E72D24F1E76324EFE72124F0E71124BF
:10306000EEE72924ECE700BF5C1600202DE9F341D0
:103070001E4600230C4617460546336050B390F8B1
:1030800034304BB3B1F5801F28D2DFF854800121D2
:103090001CF03CFF2146424628460DF10703FFF78E
:1030A00019F80446A0B99DF80730032B10D0022B65
:1030B00003BF01233B600423D8F8103018BF3860E9
:1030C0003360E86B1DF00BF9204602B0BDE8F081DB
:1030D0002D24F6E72124F7E71124F5E72924F3E767
:1030E0005C16002073B5044641691CF0CBFE626E8D
:1030F000236B024493422CBF00220122834294BFDF
:1031000000231B1A207C84F85020636584F8580043
:10311000A8B100230B4E1A461946204600961DF012
:1031200000FA002305461A461946204600961DF06F
:1031300001FAE3682844984294BF0020C01AE06571
:1031400002B070BDFFFF0F002DE9F3471E46436933
:103150000446B342884617469DF828904FD3002571
:103160008DF80750204661691CF08CFED4F830A021
:1031700082450AD2236AB5EB430F06D200222046CD
:103180000DF10701FFF78CF9B8B39DF80730012B5B
:1031900005D1002220460DF10701FFF781F9B9F1B1
:1031A000030F06D0314620461CF06CFE256B85428D
:1031B00027D3154D4FF0FF31284600F071F94B46EB
:1031C000294600222046C5E90376C5F80080FFF7AE
:1031D00035FB236E054663B12046FFF783FF94F865
:1031E000503013B994F858301BB1236E04F15000DD
:1031F0009847284602B0BDE8F0870135B2E762255E
:10320000F7E71C25F5E700BF301600202DE9FF4148
:103210000F4690461E46054698B390F8343093B357
:10322000B1F5801F31D21A4C02211CF06FFE2246EC
:10323000394628460DF10F03FEF74CFF024678B1E0
:10324000012342460093394633462846FFF77CFF68
:103250000446E86B1DF043F8204604B0BDE8F08159
:103260009DF80F30012BEBD12169B142E8D10093D9
:10327000414633462846FFF7F3F904460028DFD1DC
:10328000E7E72124E8E71124E6E72924E4E700BF83
:103290005C16002030B50C46054685B028B390F882
:1032A000343023B3B1F5801F23D202211CF02EFE4F
:1032B0000DF10F03214628460F4AFEF70BFF034688
:1032C00088B99DF80F20032A0DD0032221460092D1
:1032D00002462846FFF738FF0446E86B1CF0FFFF64
:1032E000204605B030BD2D24F7E72124F8E711244E
:1032F000F6E72924F4E700BF5C1600202DE9F0432F
:10330000466886B3056898464FF0000CA946AE465D
:1033100055F83C400CF1010CC4F31307013401D003
:10332000B94217D0B4450EF1080EF1D12F46002452
:1033300003E0B44207F1080712D055F834300134E5
:103340000133F6D1C1F3130141EA0851C7E9001274
:10335000BDE8F08341EA0851CEE90012BDE8F083F0
:10336000B8F1030F03D101230372BDE8F0830023FA
:1033700003E0B34209F10809F5D055F833400133B1
:10338000C4F30754032CF4D1C1F3130343EA0853E5
:10339000C9E90032BDE8F0832DE9F04106464068F6
:1033A00082B0B8B10F4690460024336853F83450C9
:1033B00003EBC403C5F30752C5F31301013506D06F
:1033C0005B683046CDF80080B84718B170680134AA
:1033D0008442EAD302B0BDE8F08100BF024B196815
:1033E000024B1868FFF7F0BC742E0020942E0020CA
:1033F00008B52AF0B2FD014B186008BD8816002000
:10340000014B18682AF0A4BD8816002073B5044645
:103410002248012A00EAC1119DF8185023F07C408F
:1034200007D9961E012E28D9073303F07F031943CD
:1034300008E09DF81C300A43DB0603F0C053134339
:1034400043F060410023C4E900108DF80730B5B1A6
:10345000202221460DF107001DF03CFA1A220DF141
:103460000700211D1DF036FA082063689DF807202B
:1034700043EA8263636002B070BD1143E2E71B223E
:103480000DF1070021461DF025FA23689DF807205D
:10349000042043EAC2632360EDE700BF80FFFF071B
:1034A00038B5094B0D461A68002104461FF066FA2C
:1034B00000234FF0FF322383C4E900252361A2607B
:1034C000E382A37638BD00BFE8EE02000138C0B247
:1034D00005289ABF014B185C01207047EDEE0200F1
:1034E0002DE9F0410746154600240E46596888B07C
:1034F000490A012922464FEA510104F10104F8D892
:10350000DC78997824031B88C90201F4006104F473
:1035100080540C43C3F30A035203234492B24FF086
:1035200000089C18274B6FEA0444039325F0784366
:10353000ED4302A90DF107001B2202938DF80780CD
:103540001DF0C8F99DF80720029B02A943EAC26357
:103550000DF107001B2225F07845049302958DF8A4
:1035600007801DF0B7F99DF80720029B6FEA14440D
:1035700043EAC26305934FF0FF330794069307A90C
:10358000BB69012206F110009847BB6905A90446F2
:10359000012206F108009847BB69404518BF044660
:1035A00004A90122301D98470122404518BF044656
:1035B000BB69304603A99847404508BF204608B07C
:1035C000BDE8F08101009AB20021F0B5284D0C460B
:1035D0002868284A0346166836B11E68002E3DD07A
:1035E00097889E88B74239D80134052C02F1080229
:1035F000F1D109B118462B6000241F4E25463168D1
:103600001E4A0B46176837B11F6857B3B2F804C09B
:103610009F88BC4525D30135052D02F10802F1D163
:103620000CB1194633600368F3B1154A8088936F73
:1036300060F3184393674FF050234FF000429A66AF
:103640000B689BB10E4A8988936F61F308039367F7
:103650004FF050234FF080429A66F0BD134601218F
:10366000C2E713460124D6E7064BE6E7054BF1E730
:1036700090160020C41600208C1600209C160020F6
:103680000040005000600050012208B50F4B00219F
:103690001A700F4828221FF071F9002128220D48C6
:1036A0001FF06CF90C4B0D4A062013600C4A136096
:1036B0004FF040420B4B5A669A6603F04BFB0620D4
:1036C00003F02CFBFFF780FF002008BDF92A002043
:1036D000C41600209C16002094160020901600208E
:1036E0008C1600200060005010B500240C4B062002
:1036F0001C7003F001FB062003F02CFB4FF040424E
:10370000084B21465A6608489A6628221FF036F967
:103710002822214605481FF031F9204610BD00BF80
:10372000F92A002000600050C41600209C160020DA
:1037300008B5084B1A78824203D0187018B1FFF709
:1037400043FF002008BD4FF04042034B5A669A6683
:10375000F7E700BFF82A00200060005008B501F02C
:1037600099F8B0EE407A9FED0F0AB4EEC07AF1EE10
:1037700010FA07D4DFED0C7AB4EEE77AF1EE10FA26
:1037800037FE870AF6EE007A30EE270ADFED077A79
:1037900030EE270ABDEEC00A10EE103AA3F1800009
:1037A00040B208BD000000C30000FE42000000431C
:1037B000154A38B5936E526E134013F0804212D002
:1037C000124B1B681D6835B100241C605C60FFF75C
:1037D000C5FF2146A8474FF080420D4B5A66BDE811
:1037E0003840FFF7F1BE002BF9DA0A4B1B681C6862
:1037F0002CB11A605A60FFF7B1FF0121A0474FF0CA
:103800000042034BEAE700BF004000508C16002046
:103810000060005090160020044BD3F88420D2069C
:10382000FBD4D3F88400C0F38110704700400050EF
:1038300038B5184B0546D3F824010C4600F00700B4
:10384000062823D8DFE800F0040A121A1E0E16001C
:10385000012305B1286004B1236038BD29F0F0F9D7
:103860000523F6E729F0ECF90623F2E729F028FA18
:103870000323EEE729F024FA0423EAE729F01CFAEF
:103880000223E6E729F022FA0723E2E7002318469D
:10389000DFE700BF0080005038B5104B0546D3F875
:1038A00000310C4603F00303022B0BD0032B0DD089
:1038B000012B0FD129F004FA032305B1286004B1CC
:1038C000236038BD29F006FA0823F6E729F0FEF94F
:1038D0000723F2E701230020EFE700BF008000503C
:1038E00038B5104B0546D3F820310C4603F00303DE
:1038F000022B0BD0032B0DD0012B0FD129F0A0F9F7
:10390000052305B1286004B1236038BD29F0D8F93A
:103910000323F6E729F0D0F90223F2E70123002080
:10392000EFE700BF0080005038B5104B0546D3F8D4
:1039300040310C4603F00303022B0BD0032B0DD0B8
:10394000012B0FD12AF018FB092305B1286004B11F
:10395000236038BD29F0BEF90823F6E72AF00FFBF3
:103960000B23F2E701230020EFE700BF00800050A7
:1039700038B5104B0546D3F860310C4603F003030D
:10398000022B0BD0032B0DD0012B0FD12AF0F4FA10
:10399000092305B1286004B1236038BD29F09AF9E4
:1039A0000823F6E72AF0EBFA0B23F2E701230020C5
:1039B000EFE700BF008000503C4B984272D02AD8FD
:1039C0003B4B98426BD014D83A4B984264D00AD8FB
:1039D000394B984243D0394B984240D0384B9842AB
:1039E0003DD000207047374B9842FAD1364B586E85
:1039F0007047364B984235D003F5371303F5D8633B
:103A0000984232D0A3F5B703A3F558639842E8D1A2
:103A10002D4B186F70472E4B984231D00FD82D4B3D
:103A2000984225D02C4B984226D0A3F53703A3F516
:103A3000D8539842D5D1244BD3F880007047274BF8
:103A4000984221D003F5740303F5105398421FD018
:103A5000234B9842C5D11C4BD3F8900070471A4BAA
:103A6000986D7047184B586F7047174B986F704799
:103A7000154BD3F884007047134BD3F88800704778
:103A8000114BD3F88C0070470F4BD3F8940070475C
:103A90000D4BD3F8980070470B4BD86D70470A4B0D
:103AA000986E7047084BD86F704700BF002D3101EA
:103AB00080969800404B4C0080841E0000093D0019
:103AC00040420F00C0CF6A000080E00F0024F400E5
:103AD000006CDC020048E80180D543020090D0036E
:103AE000007E560338B5104B0546D3F840320C46DD
:103AF00003F00303022B0BD0032B0DD0012B0FD1AE
:103B00002AF03AFA092305B1286004B1236038BDD0
:103B100029F0E0F80823F6E72AF031FA0B23F2E760
:103B200000231846EFE700BF0080005038B5144B63
:103B30000546D3F800020C4600F0070004281BD805
:103B4000DFE800F003090D111500012305B128601D
:103B500004B1236038BD2AF00FFA0923F6E729F0F3
:103B6000B9F80823F2E72AF00AFA0B23EEE729F066
:103B70008DF80E23800AE9E700231846E6E700BF28
:103B800000800050B0F5207F1FD009D8B0F5007F2D
:103B900015D003D868B1B0F5C07F0AD000200CE082
:103BA000B0F5607FFAD10B4BD3F88000C0F3011061
:103BB00003E0084B186FC0F3033001307047054B2A
:103BC000D3F89000C0F30460F7E7024B186FC0F31E
:103BD0008020F2E7008000504FF400320E4B014687
:103BE00010B500209A66FFF7CDFF484341F67132C9
:103BF0000A490B4B884294BF00200120DC69DA633C
:103C00009A6822F4401242EA00529A60E20344BFEA
:103C10000022DA6310BD00BF00900050005A62021B
:103C2000000003505F2898BF094B4FEA501294BF21
:103C300053F82230074B00F01F0029B103F58053E1
:103C4000012282401A60704703F50053F8E700BF75
:103C5000F4EE0200608200501FB50021B0F5807FB5
:103C60000446019100F0208100F29D80612800F25D
:103C700095801F2805D8002840F0928029F006F88A
:103C8000E5E0A0F12004412C00F28A8001A353F862
:103C900024F000BF7D3C0000533E00007D3C00004E
:103CA000533E0000733E0000733E0000733E000070
:103CB000733E0000533E0000533E00001B3E0000D8
:103CC000D53D00008F3E0000C93E0000D53D0000FC
:103CD000533E0000533E0000533E0000A13D000053
:103CE000A13D0000A13D0000A13D0000A13D00005C
:103CF000A13D00007D3E0000F73D0000533E000066
:103D0000533E0000533E0000DD3E0000D33E000065
:103D1000533E0000A13D0000A13D0000A13D000078
:103D2000A13D0000A13D0000A13D0000A13D00001B
:103D3000A13D0000A13D0000A13D0000A13D00000B
:103D4000A13D0000A13D00007D3C0000A13D000020
:103D50007D3C00007D3C00007D3C0000733E000087
:103D6000A13D0000A13D0000A13D0000A13D0000DB
:103D7000A13D0000A13D0000A13D0000A13D0000CB
:103D8000A13D0000A13D0000A13D0000A13D0000BB
:103D9000A13D00007D3C00007D3C0000802854D007
:103DA000019804B010BDB0F5A06F67D028D8B0F569
:103DB000607F59D019D8B0F5007F55D004D8B0F540
:103DC000C07F3FF45BAFEBE7B0F5207F41D0B0F5AB
:103DD000407FE5D128F05AFF02464FF42070FFF7EC
:103DE000D1FEB2FBF0F252083CE0B0F5806F40D05B
:103DF000B0F5906FD4D1002101A8FFF719FDCFE7EE
:103E0000B0F5E06F65D016D8B0F5C06F3FD0B0F513
:103E1000D06F59D0B0F5B06FC2D10021324B0391B1
:103E2000D3F8803103F00303012B35D0022B37D0B8
:103E3000039B0193B4E7B0F5F06F4FD0B0F5086F76
:103E4000AED101A8FFF728FDAAE728F0FFFE0190F8
:103E5000A6E728F01BFF02464FF42070FFF792FE02
:103E6000B2FBF0F201929BE728F0F0FE02462046FA
:103E7000F4E7002101A8FFF733FD91E71A4BD3F8CF
:103E8000203203F00303012BF3D0022B88D1002151
:103E900001A8FFF749FD83E703A8FFF721FDC7E766
:103EA00028F00AFF0390C3E74FF0E02302911B695B
:103EB0005B0704D528F0EAFE0290029BB9E703A94C
:103EC00002A8FFF731FDF8E7002101A8FFF72EFE59
:103ED00066E7002101A8FFF705FE61E7002101A8C0
:103EE000FFF746FD5CE700BF0080005008B580206A
:103EF000FFF7B2FE034B98429EBF4FF48032024B55
:103F00001A6708BD005A620200A000501FB50346A0
:103F10000020B3F5807F01907FD027D8382B00F0A8
:103F200092800BD8243B092B10D8092B0ED8DFE840
:103F300003F06F6F6F6F0D0D5A0D3685522B67D0E2
:103F400007D83D2B3AD03E2B00F08680019804B074
:103F500010BD802BFAD1434B1B6F03F00703013BCD
:103F6000032BF3D8DFE803F03D36393BB3F5D06FD0
:103F700064D019D8B3F5A06F65D00AD8B3F5806FB7
:103F800046D0B3F5906FE1D1002001A9FFF750FCB6
:103F9000DCE7B3F5B06F26D0B3F5C06FD6D1002003
:103FA00001A9FFF7C1FCD1E7B3F5006FECD00AD847
:103FB000B3F5E06F50D0B3F5F06FC7D1002001A981
:103FC000FFF7D6FCC2E7B3F5086FBFD101A9FFF731
:103FD00063FCBBE705230193B8E70323FBE7072353
:103FE000F9E70223F7E71F4BD3F8804104F00304FD
:103FF000012C04D0022C08D000240194A6E7002153
:1040000003A8FFF76DFC0F24F7E728F055FEF4E74F
:10401000002001A9FFF764FC98E74FF0E02302902D
:104020001B695B0705D528F031FE0C230393039B26
:10403000D1E703A902A8FFF777FCF8E7002001A960
:10404000FFF774FD82E7074BD3F8203203F0030338
:10405000012BDDD0022BA1E7002001A9FFF742FDD3
:1040600074E700BF008000504FF48032074B0849CE
:10407000586E03F580535A660B6A23F001030B62F6
:10408000C3035CBF034B5A66704700BF00800050FB
:1040900000C0075000A0005008B5FFF737FF082800
:1040A00011D00938012802D94FF6FF7008BD4FF42E
:1040B0000012064B5A6603F5D8335B6ADB07F3D56B
:1040C0004FF4FA70F2E7024B1888EFE700900050C7
:1040D0001230002008B5FFF719FF03280ABF024B72
:1040E0004FF6FF70188808BD1030002070B50446E8
:1040F0008020FFF70BFF032800F082804FF400229E
:10410000444B02215A6645F60E03434AC2F88030FA
:10411000424B9962012103F580539962936DD90353
:10412000FCD4D4E900131B0543EA0163E17B94F856
:1041300023500B43217B43EA0143617B43EA013374
:10414000A17B43EA811313619169D4E904031B063F
:1041500043EA806301F000410B43A17EE07E0B4304
:10416000217E43EA0143617E43EA01239361E169D1
:10417000136A002923F00D0343EA010314BF012150
:10418000002143EA800343EAC103136294F820301C
:1041900094F82200916A4FEA431332D194F82160D7
:1041A00021F0330143EA06130B4343F0010393620A
:1041B0001B49194B9A6D31EA0202FBD102221749C1
:1041C0008A621A659A6D5200FCD41A69A16822F4B9
:1041D000700242EA01521A614FF000420F4B9A619D
:1041E00018B9022203F580539A6215B901220D4BCA
:1041F0009A6294F824301BB1074B0B4AC3F8802015
:1042000070BD21F0330129430B4343EA400393621D
:10421000EFE700BF0090005000C0005000D00050F9
:104220000300014000E00050F1A7FFFF014B93F9AC
:1042300000007047FB2A00204FF480011B4A43789E
:1042400010B551664FF4D151022402F5B8325162D3
:1042500017494F2B4C604FF0010428BF4F2301F545
:1042600080514C601169C903FCD4017843EA0123F1
:104270005361D0E901131B0143EA0123417B0B4346
:10428000017B43EA41039360C37B817B1B0143EACB
:104290004113417C0B43017C43EA41035360837C1F
:1042A00013B16FF4D153536210BD00BF00900050A2
:1042B00000100250014B1880704700BF12300020E0
:1042C000014B1880704700BF103000204FF40012DF
:1042D00008B5184B5A660223174A5360936813F4C3
:1042E0008033FBD1012822D128F0EAFC134B9842FD
:1042F00015D003F5122303F5F863984213D0104B41
:1043000000EB8002400AB3FBF0F3520A0A49CA628A
:104310000B6301234B620022074B5A6008BD45F630
:104320007A13084AF2E745F61A03074AEEE75362A2
:10433000F1E700BF009000500040025000F0490239
:1043400064666666D8B80500BBCF0500B0F5207F6F
:1043500010B50C4642D008D8B0F5007F33D003D852
:1043600088B1B0F5C07F0ED010BDB0F5607FFBD135
:104370001F4A4C1ED2F8803023F0300343EA041366
:10438000C2F88030F0E71CF0C5FA1CF0D1FA4FF407
:104390008031184B164A1967136F013C23F47043A0
:1043A00043EA0433136728F071FC0446FFF734FA3C
:1043B000C0F1020120461CF0B5FA00F035F8BDE866
:1043C0001040FFF793BD0A4A4C1ED2F8903023F0FC
:1043D000F85343EA0463C2F89030C5E7044A4C1E20
:1043E000136F23F4806343EA84231367BCE700BFA1
:1043F000008000500090005008B50121022000F01C
:1044000051F94FF42070FFF7BDFB054B18701CF0FD
:1044100081FA1CF08DFA4FF48032024B1A6708BD06
:10442000FA2A00200090005008B54FF4C070FFF742
:1044300013FCBDE808400449884294BF01210221D1
:104440004FF42070FFF782BF80F0FA0238B50446BF
:1044500028F01CFC0546FFF7DFF9C0F102012846F1
:104460001CF060FA0121002000F05CF92CB1FFF78C
:10447000DBFFBDE83840FFF739BD034B4FF4207038
:104480001978FFF763FFF4E7FA2A00204FF4C022FF
:1044900070B50546FFF790FA2F4B04465A6603F5B0
:1044A00098335A68012A04D12C494A609A699207C4
:1044B000FCD18020FFF72AFD052807D11CF02AFA3D
:1044C0001CF036FA4FF48032234B1A67244B24F049
:1044D00040749D4235D0234B9D4235D028F0B0FB2F
:1044E0008542064603D90121284600F01BF91E4BE0
:1044F000DA6812F0060FFBD199689C609A686240F6
:1045000012F4F81F23D12846FDF7E2FA8020FFF7C6
:10451000FDFC05280DD128F0B9FB0446FFF77CF916
:10452000C0F1020120461CF0FDF9FFF77DFFFFF707
:10453000DDFCB5420ED8BDE870400121002000F03E
:10454000F1B844F00074C9E744F08074C6E735461A
:104550009960DBE770BD00BF0090005000E00150A3
:1045600040420F0080841E000000015010B5224B15
:1045700070B94FF40031214A1860516602F5983243
:104580005268012A03D11E4AD2F800211A6010BDD8
:104590001B68002BFBD01B4A5268012AF7D0184A2F
:1045A0008020C2F80031FFF7B1FC05281FD14FF47D
:1045B000C070FFF7E7FA0128044604D102214FF446
:1045C000C070FFF7C3FE07220F4B1A610122A3F54B
:1045D00080535A600B4A1369DB07FCD5012CD6D1F6
:1045E0002146BDE810404FF4C070FFF7AFBE012276
:1045F000064B5A60CBE700BFEC160020009000503D
:104600000080005000C0015000E0015000D0015077
:10461000044A4178536F23F4407343EA01235367FC
:10462000704700BF0040005010B5044610B1002094
:10463000FFF79CFF124A136943F00403136129F04A
:1046400025F91CF07AF90F4B5B6E5B0142BF0E4BF4
:104650000E4AC3F8202429F080FC2AF001F829F042
:1046600077FC1CF06BF903F097FC1CB9BDE8104017
:1046700028F00CBB0120BDE81040FFF777BF00BF5A
:1046800000ED00E00080005000E003500000FF0F4C
:10469000034A0179D36E23F030030B43D36670478E
:1046A00000400050F8B504461C4BD3F88420D106D6
:1046B000FBD4D3F88430C3F381139C422CD028F070
:1046C000C5FA012C064602D121461CF02BF929F02F
:1046D00044FC4FF00072124B07465A6620461CF00D
:1046E00034F94FF480630D4D621E93402B676B6E5F
:1046F0009A0103D4D5F884309B060AD5384629F0B0
:1047000027FC022C08D13046BDE8F84000211CF0FF
:1047100009B9D5F88430EAE7F8BD00BF0040005081
:104720000060005010B50C4608B928F08FFA074B0E
:1047300021461B783BB1064B984204D80120BDE8C6
:104740001040FFF7AFBF0220F9E700BFFC2A0020AE
:10475000005A62020278034B012100201A70FFF711
:10476000E1BF00BFFC2A00204FF0004238B5264BC5
:1047700026495A6601224A604AF6CD3103F50B23D9
:104780005D6C1964154030BB9968C9070BD40024CF
:1047900001221F4B5A6015B11E4B1F4A1A6427F0A5
:1047A0008BF9204638BD1A498A601C4AD96ACC0761
:1047B00005D4904201D10724EAE70130F6E79042A0
:1047C000E5D1F8E70132DC6A14F0080406D08A4229
:1047D000F8D10724DFE700221049F4E78A42F8D035
:1047E00020220B4B0B495A620122A3F580539A6099
:1047F00023460A4A486A800603D49342E9D001332B
:10480000F8E79342C7D1E4E7009000500050095008
:1048100000600950004009503254FFFF40420F0031
:104820004FF0004238B5174B174C5A66012203F57A
:104830000C235A604AF6CD33656C23644378934069
:104840001343124AD363C3788178A2689B0043EA7A
:10485000011322F074021343A3600279837943EABF
:10486000022323614279C37943EA0223636100781A
:10487000FFF77AFFEB0744BF054B236427F01CF9D1
:10488000012038BD00900050004009500040005009
:104890003254FFFF064BDFED077AD3F88830C3F3BD
:1048A0000A0300EE103ABAEECF0A30EE670A7047FC
:1048B000004000503393884310B504461CF04AF87A
:1048C000002341F202020849E360A360226104F57B
:1048D0000052E3616361A36123626362E362A364E4
:1048E0005164A36210BD00BF7F370C0138B5044688
:1048F000154639B91748844214BF08463820FFF7D7
:10490000ABF901466368A36803F0E003402B1BD0BA
:1049100014D8002B0CBF102308236B434901B1FBB3
:10492000F3F10D4A2039204602EAC10201211CF0B0
:104930000DF8A262BDE838401CF008B8602B05D025
:10494000802B05D10123E8E70623E6E70423E4E70B
:1049500038BD00BF0000035AF8FF7F00F8B5436878
:1049600004460D4616461BB140F2FF711BF0EEFFE8
:104970002046FFF7A1FFE9896B7B22690B43298A57
:1049800022F44C520B4322F0030213432361A2682A
:104990002B7B297E22F0804222F0E2020B4313435C
:1049A0006A691343AA68A3601AB9A36843F0004375
:1049B000A360EB6904F58051002B59D0987A1F7AD7
:1049C0004004D4F808C040EA87503B4F0CEA070780
:1049D00038439F8807F4C04738435F7840EA870030
:1049E0005F7B40EAC7009F7B40EA07109F7840EA60
:1049F0008720A060D4F80CC0D3E9040738432CF416
:104A0000D81727F4C06738439F7940EA8720DF79B9
:104A100040EA4720E060187800F0FD07012F08BF4A
:104A2000E768A0F1020004BF47F00407E76001282F
:104A30004FF0010094BF214F214FC7F8C000587AB2
:104A4000086218B1E06840F40060E060D87A48B1CC
:104A5000E0681C4F40F40040E060187B00F00F005D
:104A6000C7F88000E069DB7B20F003000343E361CB
:104A700026B196F8203093B101238B6101234B605E
:104A80001AB120466968FFF731FF204629781BF0EC
:104A90007EFF236CDB4313F4405FFAD1F8BD96F838
:104AA0002230606996F8216020F009003343034307
:104AB00043F001034B61E1E7E39BBDFF00D40350EA
:104AC00000E4035000900350F8B504460D461F461D
:104AD00016464AB101238B403021184A01FB0022BF
:104AE000EFB141F2100153503023072D4FF00F0169
:104AF00004FB03F316D8A80006FA00F28140104820
:104B000018441BF070FF4EB9012330210B4AAB4013
:104B100001FB042277B141F210015350F8BD42F27B
:104B20001001E0E7A5F10800800006FA00F28140DC
:104B30000448E5E742F21001EFE700BF00C0035070
:104B400004C003500CC003504FF40032054B9A666A
:104B500041F6713203F51C33DA63012203F5005389
:104B6000DA607047009000500B4B01219B6E9B0355
:104B70005EBF4FF40032094B9A6641F67132084B22
:104B8000DA63084AD1600022DA634FF40032A3F5F9
:104B900018339A66704700BF0080005000900050A4
:104BA0000000035000200350CB784A7810B55B0119
:104BB0000C7843EA82030A79234343EA02130C2266
:104BC000424302F1B0421363012C02BF8A78024BC8
:104BD00043F8202010BD00BFE880035008B54FF017
:104BE000B0435A6802B960B15B680BB11BF00AFFB1
:104BF0004FF0B04130B10120074B58601BF002FF6D
:104C0000C86008BD1BF0FEFE0223CB601BF0FAFE5D
:104C10000122024B5A60F4E70010005800200058AF
:104C20004FF0B0414B6810B50BB11BF0EBFE012209
:104C30000B4BC4785A608378934043EA84034478EA
:104C40002343047943EA0413447943EAC4038B60A1
:104C5000044B5A600378C3F10203CB6010BD00BF60
:104C600000200058001000584FF48032064B5A665E
:104C700003F5E6235B69C3F38512827003F03F02FC
:104C80001B0B42700370704700900050014B986CF2
:104C9000D96C70470080E00F0120034B9B680A33FA
:104CA00003F01F03984070470080E00F034BD3F8D8
:104CB0002424D3F820041040704700BF00C00350E4
:104CC000064BDA6E02F03002202A06D0DA6E22F0AD
:104CD000300208B142F01002DA667047004000501E
:104CE0002DE9F8431E4B0546D3F810334B1E0E2B0F
:104CF0000E46174690F8008044781BD9F9B14FF062
:104D000000092846C7B129F03DF93023072C03FBE1
:104D100008F316D80F21A400124809FA04F2A140A2
:104D200018441BF077FEC6B9284697B1BDE8F84392
:104D300029F028B98946E4E71BF07BFEE5E78946C0
:104D4000E3E70F21083CA400074809FA04F2A14058
:104D5000E6E7BDE8F8431BF06CBEBDE8F88300BF92
:104D600000C0035004C003500CC003502C4B2DE96D
:104D7000F0411746D3F810234A1C06460C4605D1CD
:104D8000D3F8241440781BF062FE0446002C2FDB7D
:104D9000072C4FF0030532782DDC4FEA840805FA22
:104DA00008F529461F4802FA08F21BF033FE29468F
:104DB00072781D4802F0030202FA08F21BF02AFE84
:104DC000012317F0050F194A18BF194903FA04F314
:104DD0000CBFC2F81034C1F8103417F0060F18BF1A
:104DE000134AC2F814340123104AA340C2F82034F5
:104DF0002046BDE8F081A4F108084FEA880805FACA
:104E000008F529460B4802FA08F21BF003FE7278F7
:104E1000294602F00302084802FA08F2CEE700BF72
:104E200000C0035000C4035008C4035000E0035006
:104E300000D0035004C403500CC4035038B50546D9
:104E40000C4C0140D4F8303423EA0003C4F8303469
:104E5000D4F830341943C4F83014D4F82C34034354
:104E6000C4F82C34012004F50054FFF729FFC4F8DE
:104E7000205438BD00C00350124B70B5D3F8103326
:104E800006461BF0F7FD0446481C154616D0621C6A
:104E90000FD08C420FD10321304685F00102FFF77D
:104EA0001FFF012004F1100305FA03F19840FFF7FA
:104EB000C5FF204670BD4FF0FF34FAE7631CEAD10E
:104EC000F7E700BF00C003502DE9F0411446012769
:104ED0000E46054698468F4029F048F82268184B40
:104EE00043F82620302202FB0656637B3366E27AC3
:104EF000A37A120542EA0342237B42EA435228F096
:104F00000303F26533672279A37943EA024305F587
:104F1000005293616379E27942EA034205F58053D6
:104F20009A61227A02B11F64627A02B19F6305F529
:104F3000005534352F60BDE8F04129F012B800BFAC
:104F4000004004500A4B1B68C3F30743012B0ED1EA
:104F5000084B04205A6E4FF480230749520358BF70
:104F6000064A4B6601F51041086258BF5366704708
:104F70000080E00F008000500090005000A0005022
:104F80004FF48032084B5A6603F5E6235B691A0B2F
:104F9000027003F03F0242704FF6FF72C3F38513B5
:104FA00042808380704700BF00900050014B986C96
:104FB000D96C70470080E00F06289ABF014B185C3F
:104FC0000020704700EF02004FF40052034B002016
:104FD0009A660322C3F86022704700BF0090005019
:104FE0004FF40052034B00209A660322C3F860225C
:104FF000704700BF00A0005000F01F02A0F506207F
:10500000A0F55060812810D8012309494009934038
:1050100051F820201A4341F82020064951F8202059
:1050200022EA030241F8202070474FF0FF3070471A
:1050300008170020F416002000F01F03A0F506203A
:10504000A0F55060812810B519D801210D4A4009FA
:10505000994052F820300B430B4942F82030D1E9F7
:10506000003423448C682344CC68096923445B18CA
:1050700004D1C2E90033C2E90233136110BD4FF01D
:10508000FF30FBE7F4160020081700202DE9F04F51
:10509000A7B003921D4604460822CDE90401414011
:1050A00021FA02F34B40980702F1080218BF9B0057
:1050B000202A1C44F4D18123B4FBF3F303EBC31384
:1050C000E41A784B04F506241B7804F55064002B91
:1050D00039D1FEF783F9064600286ED101464022F9
:1050E00006A81DF04BFC3146402216A81DF046FCD8
:1050F0006D4E6E4FB0461036B74228BF37466C48EB
:10510000013F009743461022006806A91BF009FAE8
:105110004FF0000B81460DF1180AD94540D1644883
:10512000009743461022006816A91BF003FA4FF0BF
:105130000008834616AFC34545D15E4B9E42D8D189
:105140000122584B1A7081270026DFF878A1DFF87A
:1051500078B16309A3F58643683B5AF8232004F02D
:105160001F01CA40D20744D45BF82330CB40DB0791
:1051700032D5002E08BF26468123A4F50624A4F6C6
:10518000FF44B4FBF3F303EBC313E41A04F5062462
:10519000013F04F55064DCD1039BFBB12EBB1DE045
:1051A0005AF8040BFFF728FF013009D100223D4BCC
:1051B0001A703C4B1B78002BC5D16FF091000FE0AB
:1051C0000BF1010BA9E757F8040BFFF735FF01308E
:1051D000EFD008F10108AEE7039B23B96FF08B0015
:1051E00027B0BDE8F08F06B92646329B00201E602E
:1051F000F6E7309B13B10023309A1360319B13B153
:105200000023319A13604FF01009DFF8A480CDF825
:10521000009000232A462146D8F80000FDF7DEFE64
:10522000002836D1309B0BB1C3F800902A68224B7E
:105230009A4217D02146D8F80000FEF72BF8002834
:10524000CCD1D5E90223DDE90410834208BF8A42AC
:1052500092D1039B002BC7D06B68012BC4D16FF098
:105260008400BDE7309B002BEBD0319B002BE8D0B6
:105270002146D8F8000016AAFDF7F8FE48B9319B80
:10528000309A1B681268934297D39B1A319A136025
:10529000D7E70A4B9842CDD06328CBD0084B984231
:1052A000CFD08AE7FD2A0020006D0800816D08003C
:1052B000942E0020906D0800105D175EFFDF00F057
:1052C000FEDF00F008170020F41600202DE9F04F53
:1052D00087B08246894698461646DDF840B02AB126
:1052E000002B51D040F26C739A4250D8BBF1010FA1
:1052F00050D8002406F110073946012005941CF00F
:105300000BFC0546002848D039461BF008FC05ABCD
:10531000CDE9014300942B46012250464946FFF750
:10532000B5FE044678B110F18C0F08BF6FF08D0404
:10533000284639461BF0F3FB284629F077F820462B
:1053400007B0BDE8F08F164BC5E902A92B60C5F880
:1053500004B02EB13246414605F110001DF035FB78
:10536000059E10483B462A4631460068FDF74EFF31
:1053700038B93046FFF740FE013008BF6FF08604B1
:10538000D6E76FF09104D3E76FF08604D7E76FF0AC
:105390009104D4E76FF08504D1E76FF08C04CEE779
:1053A000105D175E942E00202DE9F0438DB08146EC
:1053B000DDE914780E4615461C468BB1B8F1000F96
:1053C00005D16FF0860630460DB0BDE8F083B7F129
:1053D000005FF6D3C3F1005303F500439F42F0D8BA
:1053E0001022002108A81DF0C9FA002207AB029381
:1053F00005AB019306AB31460093484608ABCDE9B7
:105400000522FFF743FE06460028DCD1059BA4B128
:10541000AB4215D853EA0504D3D1069B0B48C8F814
:10542000004000943A46079900682B44FDF7D6FDEA
:10543000002818BF6FF09106C5E7AB42EDD2C0E778
:105440005B1B9C4228BF1C46E7E700BF942E002050
:1054500030B58DB00C4605461022002108A81DF07D
:105460008DFA002207AB029305AB019306AB2146F0
:105470000093284608ABCDE90522FFF707FE044656
:1054800008BB099B012B21D0079D134B29461868A7
:10549000FDF700FFE8B9A5F50623A3F55063812BBE
:1054A00005F01F020DD801210C485B09914050F80E
:1054B00023204A4040F823202846FFF7BDFD013055
:1054C00001D16FF0860420460DB030BD6FF084042A
:1054D000F9E76FF09104F6E7942E002008170020FA
:1054E0002DE9F04F89B00E4607461CF0E9FE044650
:1054F0001CF0DEFE04420CD1042501201DF055F9FC
:10550000002834D0013DF8D16FF0920009B0BDE819
:10551000F08F102200210DEB02001DF02FFA04A8DD
:105520001CF0D0FE049B002BE6D0059B002BE3D0A3
:10553000069B002BE0D0079B002BDDD00025DFF879
:10554000988008F10409B5421FD34FF48A751CF006
:10555000B5FE04461CF0A4FE2040062831D11CF004
:10556000A4FE044201D01CF0A5FE0020CEE71CF0F2
:10557000A5FE04461CF094FE204010F0FD0FF6D06E
:105580001CF090FE0442D9D0BCE71CF095FEA6EBBF
:10559000050A8400544528BF544699E803000023B7
:1055A0008DE80300CDE9054307EB050BCDF810B0FE
:1055B000029404AAD8F8003007CA1CF0F3FF25446F
:1055C000C1E71CF06DFE204008289DD825FA00F0A8
:1055D000C307BCD498E700BF1CEF02002DE9F043DD
:1055E0008BB01746DDE91545DDE913269C46DDE95C
:1055F0001738894621B96FF086000BB0BDE8F083FB
:10560000002FF8D00EB9002CF5D1129909B9002A53
:10561000F1D10DB9002BEED1B8F1000FEBD0244A37
:10562000944542D10288B2F5105F3ED14288B7EB73
:10563000D20FE0D322F04001802902D0B2F5807F62
:10564000D9D11CB90020C8F80040D6E7AE421CD220
:105650003219954219D29C42CDD83146224628466D
:105660001DF073F92E4614F00F03C4D1CDE9019754
:10567000CDE90336CDE90543CDE907540993FFF79A
:10568000A3FC38B16FF09200B7E79C42EBD96FF002
:105690008900B2E707AA04A901A803F0C9FA0546E0
:1056A000FFF79EFC0543CDD0ECE76FF08500A4E743
:1056B000004440042DE9F04FA9B0074614469B462C
:1056C0008946DDF8C8A0349D29B96FF086042046CC
:1056D00029B0BDE8F08F002AF7D0BAF1000FF4D05E
:1056E000002DF2D0369B002BEFD0434A0CAE0DF1CB
:1056F000600807CA86E807004022002140461DF0E6
:105700003DF9B9F80020B9F8021002F4E043B3F50E
:10571000804FDAD0394B3A483B4043F01063834224
:1057200064D1B1F5807F61D147F212139A425DD105
:105730000621344ABBF11F0FD3680B93136912681B
:1057400001FB03F3CDE90C234FF000030E93BCD90A
:10575000339B402BB9D9359B1F2B4AD90AF1010243
:105760000023202712924022CDE91073CDE91323A4
:1057700017939AF80030CDE91582042B0F94A4D129
:10578000FFF722FC04460028A1D10B9B15AACDE906
:10579000087305AB07CA83E8070002AB12AA07CA61
:1057A00083E80700DDE910018DE803000F9B96E810
:1057B000070003F017FB0446FFF712FC044384D1F3
:1057C00046462B4620AD324603CAAA4218605960AD
:1057D000164603F10803F6D14022002140461DF091
:1057E000CDF840232023369A136070E76FF08504CC
:1057F0006DE76FF089046AE74CF102000000FFF6E4
:105800000000020960F10200F0B50F461E468BB0A1
:10581000002855D0002953D0002A51D0002B4FD05A
:105820000488B0F802C0234604F44F41B1F5824F1A
:1058300018BF002423F0FF03B3F5E24FE4B203D016
:105840006FF085000BB0F0BD122C01D0172CF7D1F2
:105850000CF10703B2EBD30F35D31E4B04ADBCF5EF
:10586000807F93E8070085E80700E9D1122C07D173
:10587000194B1A691B681344CDE9043200230693BF
:10588000002307972027CDE90873FFF79DFB002829
:10589000D8D1124A02AB92E8030083E803000AABB6
:1058A00013E903008DE80300079B95E807001CF04F
:1058B000FEFD0446FFF794FB204307D13760C1E7A4
:1058C0006FF08600BEE76FF08900BBE76FF09200D3
:1058D000B8E700BF4CF1020060F1020014EF0200D3
:1058E000F0B591B01C46DDE916C6002868D0002945
:1058F00066D0002A64D0002B62D0BCF1000F5FD0CC
:10590000002E5DD00388408803F44F4EBEF5824FD1
:105910001F4618BF0023DDB227F0FF03B3F5824F07
:1059200002D0BEF5824F03D06FF0850011B0F0BDFC
:10593000122D01D0172DF7D1C71DB2EBD70F4FEAAB
:10594000D7033DD35B00013363453CD8B0F5807F7E
:10595000EAD1122DE8D11D4F621CFB682025CDE94C
:1059600009310D9200234022CDE90B53CDE90E23DE
:10597000FFF72AFB0028D9D1099B0AAACDE90553D4
:1059800002AB07CA83E8070010AB13E903000D9BC5
:105990008DE8030097E807001CF0A8FD0546FFF717
:1059A0001FFB35B1012DBFD0072D09D06FF092003C
:1059B000BCE70028BAD10423237041233360B5E744
:1059C0006FF08600B2E76FF08900AFE760F1020088
:1059D0002DE9F0418AB00E4614461F46DDF8488096
:1059E00020B96FF086000AB0BDE8F0810029F8D038
:1059F000002AF6D0B8F1000FF3D0038803F44F4229
:105A0000B2F5824F02D06FF08500ECE7DAB2122ACD
:105A100001D0172AF7D123F0FF03B3F5E24F38D1B5
:105A20004388C8F800307BBBE300C8F80030B3F50A
:105A3000807FE8D1122A09BF314B00221A681B6906
:105A400006EB040508BFD21800231846224415F8B7
:105A5000011D12F801CD0843B1EB0C0118BF002362
:105A6000AE4243EA0103F2D10028BAD0002BB8DAE3
:105A7000109B9C4241D82246314638461CF0A5FF77
:105A8000119B00201C60AEE7D91DB4EBD10FCED026
:105A9000A7E73378042BA4D1631EDB005B08B3F5C2
:105AA000807FC8F80030AED1122AACD1144D40220C
:105AB000EB680593731C07930023CDE90823FFF7D8
:105AC00083FA00288FD1059B0393D8F80030073361
:105AD000DB0802930AAB13E90300079B8DE8030080
